:0E0000000C943A000C9400000C9400000C9438
:10000E0000000C9400000C9400000C9400000C9462
:10001E0000000C9400000C9400000C9400000C9452
:10002E0000000C9400000C9400000C9400000C9442
:10003E0000000C9486000C9400000C9400000C94AC
:10004E0000000C9400000C9400000C9400000C9422
:10005E0000000C9400000C9400003F065B4F666D90
:10006E007D077F6F0000F894EE27EFBBF1E0F5BF40
:10007E00E5BF8DE0A2E0BB27ED938A95E9F780E01E
:10008E0098E0A0E0B1E0ED930197E9F7E2E7F0E048
:10009E0085919591009761F0A591B5910590159078
:1000AE00BF01F00105900D920197E1F7FB01F0CF32
:1000BE00E0E0EEBBEFEFEDBFE8E0EEBFC0E0D3E077
:1000CE000C946900259AE7B1EF63E7B9EAB1EF61E5
:1000DE00EAB9E0EDF7E0E0930003F0930103E3E00B
:1000EE00E5BDE1E0E0936E00E4E0E093B100E1E015
:1000FE00E09370007894E5E0E6BDFFCFFFCFAA93C2
:10010E00EA93FA93EFB7EA93E5E0E6BD599A5A9A65
:10011E005B9A5C9AE0910203F0E0309711F45998E3
:10012E0011C0E130A0E0FA0711F45A980BC0E33089
:10013E00A0E0FA0711F45B9805C0E430A0E0FA07DE
:10014E0009F45C98E991EFBFF991E991A99118959D
:00000001FF
